{
  "contractName": "KamalToken",
  "abi": [
    {
      "constant": true,
      "inputs": [],
      "name": "totalSupply",
      "outputs": [
        {
          "name": "",
          "type": "uint256"
        }
      ],
      "payable": false,
      "stateMutability": "view",
      "type": "function"
    },
    {
      "inputs": [],
      "payable": false,
      "stateMutability": "nonpayable",
      "type": "constructor"
    }
  ],
  "bytecode": "0x608060405234801561001057600080fd5b50620f4240600081905550609e806100296000396000f300608060405260043610603f576000357c0100000000000000000000000000000000000000000000000000000000900463ffffffff16806318160ddd146044575b600080fd5b348015604f57600080fd5b506056606c565b6040518082815260200191505060405180910390f35b600054815600a165627a7a7230582024833e892309291a656618ddcf8a5c73ee7c0adf95696967ab611f56f75bfeb00029",
  "source": "pragma solidity ^0.4.2;\n\ncontract KamalToken {\n\n    uint256 public totalSupply;\n    \n    // Constructor\n    function KamalToken () public {\n        totalSupply = 1000000;\n    }\n\n    // set the tokens\n\n\n    // read the total # of tokens\n}",
  "sourcePath": "/home/prerna/Documents/Development/BlockchainRepository/token_sale/contracts/KamalToken.sol",
  "compiler": {
    "name": "solc",
    "version": "0.4.26+commit.4563c3fc.Emscripten.clang"
  },
  "schemaVersion": "3.3.4",
  "updatedAt": "2021-03-01T23:02:19.137Z",
  "networkType": "ethereum",
  "devdoc": {
    "methods": {}
  },
  "userdoc": {
    "methods": {}
  }
}